:100000000C94730F0C94BB410C9490410C9465417B
:100010000C943A410C940F410C94E4400C94B94078
:100020000C948E400C94A40F0C94A40F0C94A40F69
:100030000C94A40F0C94E6410C94A40F0C94A40F00
:100040000C94A40F0C94FC660C94A40F0C94A40FB5
:100050000C94A40F0C94A40F0C9448990C94444055
:100060000C94A40F0C948BAF0C94A40F0C94A40FBD
:100070000C94A40F0C94A40F0C94A40F0C94A40F34
:100080000C9412700C94A40F0C94A40F0C94A40F55
:100090000C94A40F0C94A40F0C94A40F0C94A40F14
:1000A0000C94A40F0C94A40F0C94E46F0C94A40F64
:1000B0000C94A40F0C94A40F0C94A40F0C94B66F82
:1000C0000C94A40F0C94A40F0C94A40F0C94A40FE4
:1000D0000C94A40F0C94A40F0C94D3340C9494346B
:1000E0000C94A40F422960299729B529CB29F92915
:1000F0006C2AD62A812BD92B0A2C232CA5306B2CC9
:10010000752C7F2C892C9A2CC42CEB2C032D5A2D6A
:10011000642D6E2D782D822D8C2DA530A42DAD2D26
:10012000F22D452EA530022F0830AC99BA99D999F5
:10013000E799029A059A089A0B9A0E9A119A149ABC
:10014000179A219ABDA0C0A0AFA0B3A0B9A0F7A0F4
:10015000C4A0C8A0CEA0D2A0D6A0DCA0E0A0E4A0FD
:10016000F7A0EAA0EEA0F2A076A27BA280A28AA2CB
:1001700094A20DA39EA2A6A2AEA2B8A2C2A2CCA295
:10018000DBA2E5A20DA3EFA2F9A203A3084AD73B85
:100190003BCE016E84BCBFFDC12F3D6C74319ABD56
:1001A00056833DDA3D00C77F11BED9E4BB4C3E917A
:1001B0006BAAAABE000000803F05A84CCDB2D44E69
:1001C000B93836A9020C50B9918688083CA6AAAA6B
:1001D0002ABE000000803F000C9472AC0C94602991
:1001E0000C94812B0C94C42C0C9479340C94F92924
:1001F0000C94752C0C947F2C0C94A3B70C9475ACB8
:100200000C94892C0C94DBA20C94032D0C9403A366
:100210000C940B9A0C9442290C94BDA00C94BA999E
:100220000C94F0330C94059A0C94CB290C94B9AF30
:100230000C94F9A20C9471AC0C94D9990C9476A2FC
:100240000C94029A0C94E7990C94A5300C94642DAC
:100250000C945A2D0C945D340C94DF860C94F2A00F
:100260000C9407980C9497290C94B8A20C94782DB0
:100270000C94452E0C94EFA20C94822D0C94EEA0BD
:100280000C94E5A20C94C8A00C94149A0C94D92B4D
:100290000C94179A0C94AD2D0C94F22D0C94C0A0D4
:1002A0000C9410400C94022F0C94A6A20C943D3494
:1002B0000C94B3A00C94CEA00C94F7A00C94EAA0DC
:1002C0000C94AEA20C9408300C9411400C947BA2B8
:1002D0000C940E9A0C94B9A00C94119A0C9480A2D0
:1002E0000C94AFA00C946E2D0C94B5290C948AA29A
:1002F0000C94D62A0C94A42D0C949EA20C94EB2C56
:100300000C9432340C940DA30C94219A0C94AC9957
:100310000C94CCA20C94D2A00C94C2AC0C940A2CD9
:100320000C94D6A00C9494A20C946C2A0C94089A69
:100330000C94DCA00C94232C0C948C2D0C949A2CF3
:100340000C94C4A00C94C2A20C94E0A00C94E4A061
:100350000C946B2C4E414E494E495459494E46CD52
:10036000CCCC3D0AD7233C17B7D13877CC2B32956C
:1003700095E6241FB14F0A000020410000C842004A
:10038000401C4620BCBE4CCA1B0E5AAEC59D7443D1
:100390004F4D4D554E49434154494F4E00445259DB
:1003A00052554E004552524F525300494E464F004F
:1003B0004543484F0020746F6F206C6F6E67206557
:1003C0007874727573696F6E2070726576656E747D
:1003D00065640A0020636F6C6420657874727573BD
:1003E000696F6E2070726576656E7465640A004789
:1003F000322F47332062616420706172616D6574D1
:100400006572730A004A303400205A3A200020599D
:100410003A200042656420583A2000456E64206608
:10042000696C65206C6973740A00426567696E20A7
:1004300066696C65206C6973740A0053442070729D
:10044000696E74696E67206279746520004E6F74FE
:10045000205344207072696E74696E670A002569C2
:10046000730025696D202569730025696820256959
:100470006D20256973002569642025696820256938
:100480006D20256973002569792025696420256917
:10049000682025696D20256973005072696E74208B
:1004A00074696D653A2000B003AB03A4039D038F0C
:1004B000036F66660044454255473A004B494C4C31
:1004C00045442E20006F6B0053657474696E67207D
:1004D00054726176656C20416363656C657261740A
:1004E000696F6E3A200053657474696E67205265B7
:1004F000747261637420416363656C6572617469D1
:100500006F6E3A200053657474696E67205072698B
:100510006E7420416363656C65726174696F6E3AD5
:10052000200053657474696E67205072696E742080
:10053000616E642054726176656C20416363656C02
:1005400065726174696F6E3A20005A20456E64735B
:10055000746F702041646A7573746D656E74207376
:10056000657420746F20286D6D293A00205A002090
:100570005900580020204D61783A2000205A002070
:100580005900580020204D696E3A20004F6E20001F
:100590004F666600536F667420656E6473746F7087
:1005A000733A2000206F7574206F662072616E6749
:1005B000650A00536572766F20003A20002053656B
:1005C00072766F200020643A0020693A0020703A69
:1005D0000043290A0061626C656420286D696E2001
:1005E00074656D702000436F6C642065787472755B
:1005F000646573206172652000546F6F20666172BC
:100600002066726F6D207265666572656E63652027
:10061000706F696E740A003A20007A5F6D61783AF3
:1006200020007A5F6D696E3A20005A204F6666732B
:1006300065740041637469766520457874727564E9
:1006400065723A2000556E6B6E6F776E20636F6D2A
:100650006D616E643A202200446F6E652C204175F6
:10066000746F204C6576656C696E672077617320C6
:10067000616374697665642100446F6E652C204D5A
:10068000616E75616C204C6576656C696E6720776C
:100690006173206163746976656421004A303200B9
:1006A0004A3136004B696C6C6564004A3333200074
:1006B0004D61785431004A333320004D6178543015
:1006C000004A333320004D696E5431004A333320E1
:1006D000004D696E5430004A333320005265616426
:1006E00053442063617264206572726F7221004A04
:1006F0003333200056312E332E352E38004A333313
:10070000200041333156200041333156200047321A
:10071000380A473239004A3236004A3234004A3207
:1007200034004132395620004A3032004A3132001A
:10073000473930004731204525694635303000477C
:100740003120452D302E3146256900473120453076
:100750002E31462569004731205A25694625690012
:100760004731205A2D302E31462569004731205A15
:10077000302E3146256900473120592569462569C3
:1007800000473120592D302E314625690047312050
:1007900059302E31462569004731205825694625B4
:1007A0006900473120582D302E31462569004731E8
:1007B0002058302E314625690047393100473238FC
:1007C00000473238205A0047323820590047323823
:1007D0002058004132305620004F4B004A3036003E
:1007E0004D3834004A3034004A3136004A30350042
:1007F000454E4400464E20004A3032003939393ADD
:10080000393939004D0048004137562000413656ED
:10081000202D2D2D0041365620005A3A2000593AFD
:100820002000583A200041355600413456200041FE
:1008300033562000413256200041315620004130CD
:1008400056200045525220004D313130004A31309F
:1008500000526573656E643A20006F6B004A303158
:10086000004A3030004A3135004A3233004B494C9F
:100870004C45442E20005072696E74657220686188
:100880006C7465642E206B696C6C28292063616C24
:100890006C6564210A00000020C100000000000017
:1008A00000005761726E696E673A20486F6D696E1D
:1008B000672042756D702044697669736F72203CC1
:1008C00020310A000000A0400000A04000000041CC
:1008D0000000D2430000CD430080E343FFFFFF4D03
:1008E00045414E4C5F4C3A002020506C616E6E6565
:1008F0007242756666657242797465733A200020AB
:1009000046726565204D656D6F72793A2000436FC0
:100910006D70696C65643A20466562203238203219
:100920003032310A00207C20417574686F723A20A1
:1009300028574750290A00323031362D31322D30B8
:10094000362031323A303000204C617374205570BB
:1009500064617465643A2000312E312E302D52438B
:10096000380A0056312E332E352E380A0020536FA8
:100970006674776172652052657365740A0020574A
:1009800061746368646F672052657365740A002040
:1009900042726F776E206F75742052657365740AAA
:1009A000002045787465726E616C205265736574C1
:1009B0000A00506F77657255700A004A3132004A5A
:1009C00031370073746172740A004731205A2B3238
:1009D0003000473931006572726F72207772697426
:1009E000696E6720746F2066696C650A004A31324F
:1009F000004A3033004A313800446F6E652073611D
:100A000076696E672066696C652E0A004D32390082
:100A100020746F6F206C6F6E6720657874727573C9
:100A2000696F6E2070726576656E7465640A004A3F
:100A300031330020636F6C6420657874727573695C
:100A40006F6E2070726576656E7465640A00205A58
:100A50003A200020593A200042656420583A20008C
:100A600020706F736974696F6E206F7574206F6684
:100A70002072616E67652E0A003F50726F626520BA
:100A8000002066697273740A005A005900580048C1
:100A90006F6D652000203D3D3D3D00202020200061
:100AA00042696C696E656172204C6576656C696E31
:100AB0006720477269643A0A20004A3235002842AA
:100AC0002961636B00284629726F6E7400285229D1
:100AD0006967687400284C296566740052756E6EEB
:100AE000696E6720696E204452592D52554E206D13
:100AF0006F64650A00473239204175746F20426582
:100B000064204C6576656C696E670A003F2856293B
:100B10006572626F7365204C6576656C2069732021
:100B2000696D706C61757369626C652028302D3455
:100B3000292E0A0046696C652064656C65746564DD
:100B40003A0044656C6574696F6E206661696C6516
:100B5000642C2046696C653A20006F70656E2066D3
:100B600061696C65642C2046696C653A20002042FE
:100B7000403A0020403A00202F0020423A00202F27
:100B80000020543A004A3033004A3034004A3037AB
:100B9000003F0A0020573A004A3036004A303900F8
:100BA0003F0A0020573A004A303800205A3A0020C5
:100BB000593A0020436F756E7420583A2000204542
:100BC0003A00205A3A0020593A00583A0020643A34
:100BD0000020693A0020703A004B642000236465CD
:100BE00066696E65202044454641554C545F004B74
:100BF00069200023646566696E652020444546418E
:100C0000554C545F004B70200023646566696E6527
:100C1000202044454641554C545F005049442041F2
:100C200075746F74756E652066696E697368656446
:100C3000212050757420746865206C617374204B9A
:100C4000702C204B6920616E64204B6420636F6EB2
:100C50007374616E74732066726F6D2062656C6F61
:100C60007720696E746F20436F6E66696775726175
:100C700074696F6E2E680A00504944204175746F84
:100C800074756E65206661696C6564212074696D98
:100C9000656F75740A00504944204175746F74750E
:100CA0006E65206661696C6564212054656D7065B0
:100CB00072617475726520746F6F20686967680A65
:100CC00000204B643A2000204B693A2000204B70F2
:100CD0003A20000A20436C617373696320504944D1
:100CE000200A002054753A2000204B753A2000203D
:100CF0006D61783A2000206D696E3A200020643AD8
:100D0000200020626961733A200024F4D43050C37B
:100D10008E20C2A24017828B7011127A910D816CC5
:100D2000D90AA861E108C7586607615143061E4BFE
:100D30005D05C145A7041A411104093D98037139A5
:100D400031034036DB0265339102D4305402802EE9
:100D50001D02632CEE01752AC501B028A0011027E1
:100D600081018F2564012B244B01E0223401AC2149
:100D70001F018D200D01801FFC00841EED00971DBA
:100D8000DF00B81CD200E61BC600201BBC00641AA2
:100D9000B200B219A8000A19A0006A189900D11768
:100DA000910040178B00B516840031167E00B315F4
:100DB00079003A157300C7146F0058146A00EE13D7
:100DC00066008813630025135E00C7125B006C1277
:100DD000570015125400C111510070114F0021111C
:100DE0004B00D61049008D104700461044000210F9
:100DF0004200C00F4000800F3E00420F3C00060F33
:100E00003B00CB0E3800930E37005C0E3500270EEA
:100E10003400F30D3200C10D3100900D3000600D33
:100E20002E00320D2D00050D2C00D90C2B00AE0C20
:100E30002900850C29005C0C2700350C27000E0CBE
:100E40002600E80B2400C40B2400A00B23007D0B1C
:100E500023005A0B2100390B2100180B2000F80A3F
:100E60001F00D90A1E00BB0A1E009D0A1D00800A31
:100E70001D00630A1C00470A1B002C0A1B00110AF4
:100E80001A00F7091A00DD091900C4091900AB0995
:100E90001900920917007B091800630917004C0913
:100EA000160036091600200916000A091500F50873
:100EB0001500E0081400CC081400B8081400A408B9
:100EC0001400900813007D0812006B0813005808E6
:100ED00012004608120034081100230811001208FD
:100EE000110001081100F0071000E0071000D00702
:100EF0001000C0071000B0070F00A10710009107F5
:100F00000E0083070F0074070F0065070E005707D8
:100F10000E0049070E003B070D002E070E002007AC
:100F20000D0013070D0006070D00F9060C00ED0675
:100F30000D00E0060C00D4060C00C8060C00BC0630
:100F40000C00B0060C00A4060B0099060C008D06E0
:100F50000B0082060B0077060B006C060B00610687
:100F60000A0057060B004C060A0042060A00380623
:100F70000A002E060A0024060A001A060A001006B5
:100F8000090007060A00FD050900F4050900EB0544
:100F90000900E2050900D9050900D0050900C705C7
:100FA0000900BE050900B5050800AD050800A50546
:100FB00009009C050800940508008C0508008405BC
:100FC00008007C050800740508006C05070065052D
:100FD00008005D050700560508004E050700470597
:100FE00007004005080038050700310507002A05FD
:100FF0000700230507001C050600160507000F055E
:1010000007000805060002050700FB040600F504BA
:101010000700EE040600E8040600E2040700DB0413
:101020000600D5040600CF040600C9040600C30468
:101030000600BD040600B7040600B1040500AC04B8
:101040000600A6040600A00405009B040600950403
:101050000500900406008A0405008504050080044C
:1010600006007A04050075040500700405006B0491
:10107000050066040500610405005C0405005704D2
:101080000500520405004D04050048040500430412
:1010900005003E0404003A04050035040500300450
:1010A00004002C04050027040400230405001E048A
:1010B00004001A04040016040500110404000D04C1
:1010C0000400090405000404040000040400FC03F7
:1010D0000400F8030400F4030400F0030400EC032C
:1010E0000400E8030400E4030400E0030400DC035C
:1010F0000400D8030400D4030400D0030400CC038C
:101100000400C8030300C503030024F404D9201B12
:10111000C40C5C0E9804C4095F0265077101F405F4
:10112000F900FB04B30048048700C10369005803B9
:10113000550003034500BE023A0084023100530209
:101140002A002902250004022000E4011C00C80135
:101150001900AF01170098011400840113007101F8
:1011600010006101100051010E0043010D00360115
:101170000B002B010B0020010B00150109000C01D5
:10118000090003010800FB000800F3000800EB0061
:101190000700E4000600DE000600D8000600D200CA
:1011A0000600CC000500C7000500C2000500BD0018
:1011B0000400B9000400B5000400B1000400AD0053
:1011C0000400A9000400A5000300A20003009F0082
:1011D00004009B00030098000300950002009300A8
:1011E0000300900003008D0002008B0003008800C4
:1011F00002008600020084000300810002007F00DC
:1012000002007D0002007B000200790002007700EE
:1012100001007600020074000200720001007100FB
:1012200002006F0002006D0001006C0002006A0005
:10123000010069000200670001006600010065000E
:101240000100640002006200010061000100600012
:1012500001005F0002005D0001005C0001005B0016
:1012600001005A0001005900010058000100570018
:101270000100560001005500010054000100530018
:101280000000530001005200010051000100500015
:1012900001004F0001004E0000004E0001004D0013
:1012A00001004C0001004B0000004B0001004A000F
:1012B000010049000100480000004800010047000B
:1012C0000100460000004600010045000000450006
:1012D00001004400010043000000430001004200FF
:1012E00000004200010041000000410001004000F8
:1012F00001003F0000003F0001003E0000003E00F2
:1013000001003D0000003D0001003C0000003C00E9
:1013100000003C0001003B0000003B0001003A00DF
:1013200000003A00010039000000390001003800D7
:1013300000003800000038000100370000003700CE
:1013400001003600000036000000360001003500C4
:1013500000003500000035000100340000003400BA
:1013600000003400010033000000330000003300AF
:1013700001003200000032000000320001003100A4
:10138000000031000000310001003000000030009A
:101390000000300001002F0000002F0000002F008F
:1013A00000002F0001002E0000002E0000002E0083
:1013B00001002D0000002D0000002D0000002D0078
:1013C00001002C0000002C0000002C0000002C006C
:1013D00001002B0000002B0000002B0000002B0060
:1013E00001002A0000002A0000002A0000002A0054
:1013F0000100290000002900000029000000290048
:10140000000029000100280000002800000028003A
:10141000000028000000280001002700000027002D
:101420000000270000002700000027000100260020
:101430000000260000002600000026000000260014
:101440000100250000002500000025000000250007
:1014500000002500000025000100240000002400F9
:1014600000002400000024000000240001002300EC
:1014700000002300000023000000230000002300E0
:1014800000002300000023000100220000002200D1
:1014900000002200000022000000220000002200C4
:1014A00001002100000021000000210000002100B7
:1014B00000002100000021000000210001002000A8
:1014C000000020000000200000002000000020009C
:1014D00000002000000020000000200001001F008C
:1014E00000001F0000001F0000001F0000001F0080
:1014F00000001F0000001F0001001E0000001E0071
:1015000000001E0000001E0000004D38342058204E
:1015100059205A2045006563686F3A000102102087
:101520002008081020401020408002010201080419
:1015300002010102040810204080804020100804AD
:101540000201800402018040201008040201080406
:10155000020101020408102040800102040810204A
:10156000408000002200250028002B002E003100C2
:10157000340002010000050108010B010505050505
:10158000070508080808020202020A0A08080404FB
:101590000404010101010101010103030303030329
:1015A0000303040707070C0C0C0C0C0C0C0C0202B8
:1015B000020206060606060606060B0B0B0B0B0BB5
:1015C0000B0B027C3C3E5E2B3D3F2F5B5D3B2C2A90
:1015D000225C004572726F722077726974696E675F
:1015E00020746F20454550524F4D210A00206279EA
:1015F000746573290A0053657474696E67732053A8
:10160000746F726564202800454550524F4D206329
:101610006865636B73756D206D69736D6174636864
:101620000A00206279746573290A002073746F724E
:1016300065642073657474696E6773207265747273
:10164000696576656420280048617264636F64652B
:10165000642044656661756C742053657474696EAA
:101660006773204C6F616465640A0020204D383533
:1016700031205A005A2D50726F6265204F66667392
:10168000657420286D6D293A0A0020204D323030D3
:101690002044300A0020204D3230302044002044C5
:1016A000697361626C65640A0046696C616D656EA0
:1016B000742073657474696E67733A002044002067
:1016C000490020204D333034205000204400204970
:1016D0000020204D333031205000504944207365A4
:1016E0007474696E67733A0A0020204D36363620CE
:1016F0005A005A3220456E6473746F702061646AB8
:101700007573746D656E7420286D6D293A0A00201A
:101710005A0020590020204D323036205800486FA2
:101720006D65206F666673657420286D6D290A00EB
:10173000204500205A002059002058002042002057
:10174000540020204D323035205300416476616EC4
:10175000636564207661726961626C65733A2053D7
:101760003D4D696E20666565647261746520286D03
:101770006D2F73292C20543D4D696E207472617653
:10178000656C20666565647261746520286D6D2FD7
:1017900073292C20423D6D696E696D756D207365EE
:1017A000676D656E742074696D6520286D73292CD2
:1017B00020583D6D6178696D756D205859206A65B6
:1017C000726B20286D6D2F73292C20205A3D6D617E
:1017D00078696D756D205A206A65726B20286D6D71
:1017E0002F73292C2020453D6D6178696D756D2022
:1017F00045206A65726B20286D6D2F73290A0020C1
:10180000540020520020204D3230342050004163DB
:1018100063656C65726174696F6E733A20503D70D8
:1018200072696E74696E672C20523D7265747261C4
:10183000637420616E6420543D74726176656C0A35
:1018400000204500205A0020590020204D32303120
:101850002058004D6178696D756D20416363656C3A
:1018600065726174696F6E20286D6D2F7332293A2D
:101870000A00204500205A0020590020204D323017
:10188000332058004D6178696D756D20666565641B
:10189000726174657320286D6D2F73293A0A0020D8
:1018A0004500205A0020590020204D393220580090
:1018B00053746570732070657220756E69743A0A8E
:1018C000007A5F70726F62653A20007A325F6D69EC
:1018D0006E3A20007A5F6D696E3A2000795F6D691B
:1018E0006E3A2000785F6D696E3A20005265706F25
:1018F0007274696E6720656E6473746F70207374A0
:10190000617475730A004B494C4C45442E200050BD
:1019100072696E7465722073746F70706564206490
:10192000756520746F206572726F72732E20466920
:101930007820746865206572726F7220616E642011
:10194000757365204D39393920746F207265737451
:101950006172742E202854656D70657261747572A1
:10196000652069732072657365742E205365742039
:101970006974206166746572207265737461727433
:10198000696E67290A004E6F204C696E65204E759E
:101990006D626572207769746820636865636B7334
:1019A000756D2C204C617374204C696E653A200073
:1019B0004E6F20436865636B73756D20776974683B
:1019C000206C696E65206E756D6265722C204C61AD
:1019D0007374204C696E653A2000636865636B73AD
:1019E000756D206D69736D617463682C204C617333
:1019F00074204C696E653A20004C696E65204E7506
:101A00006D626572206973206E6F74204C6173740F
:101A1000204C696E65204E756D6265722B312C20ED
:101A20004C617374204C696E653A20004D31313041
:101A3000004A3134004D3331004D3834205820599C
:101A4000205A2045005344207265616420657272FB
:101A50006F720A00446F6E65207072696E74696EF1
:101A6000672066696C650A0020496E76616C69645E
:101A700020657874727564657220000000CD4300A3
:101A800000CD430080E343000020C10000000000BF
:101A90000000006265640A002C2073797374656D20
:101AA0002073746F7070656421204865617465727D
:101AB0005F49443A200048656174696E6720666139
:101AC000696C65640048656174696E672066616968
:101AD0006C65640048656174696E67206661696C55
:101AE00065640048656174696E67206661696C654C
:101AF00064004A31300045002C014B0027015100A1
:101B0000220154001D015D001801630013016900EA
:101B10000E01720009017B0004018400FF009000A7
:101B2000FA009C00F500A800F000B700EB00C6002A
:101B3000E600D500E100EA00DC00FC00D70014015B
:101B4000D2002C01CD004701C8006801C300890103
:101B5000BE00AD01B900D401B4000102AF003102F2
:101B6000AA006702A500A002A000DF029B002403D8
:101B700096006F039100C0038C0014048700710469
:101B80008200D1047D0037057800A00573000C06A3
:101B90006E007B066900ED0664005C075F00CB0702
:101BA0005A003A085500A308500006094B00630983
:101BB0004600BA0941000B0A3C00530A3700950A57
:101BC0003200CE0A2D00010B28002E0B2300520BF1
:101BD0001E00730B19008B0B1400A30B0F00B50B29
:101BE0000A00C40B0500D00B0000544845524D417B
:101BF0004C2052554E4157415900546865726D61F1
:101C00006C2052756E61776179004A3130004572FF
:101C1000723A204D415854454D50204245440045AC
:101C200072723A204D415854454D50004D41585420
:101C3000454D50207472696767657265640045722E
:101C4000723A204D494E54454D502042454400457E
:101C500072723A204D494E54454D50004D494E54F4
:101C6000454D5020747269676765726564000000B5
:101C70002100240027002A002D003000330001013C
:101C80000000040107010A010000200023002600D3
:101C900029002C002F003200000100000301060182
:101CA000090100000A0B02090C0D0E0807030401CC
:101CB0000000000000000000000000000000000024
:101CC00000000000000000000000000000001211F1
:101CD00010000000000000000000000000000000F4
:101CE000000000000000000057726974696E6720F0
:101CF000746F2066696C653A20004A3231006F705B
:101D0000656E206661696C65642C2046696C653A75
:101D100020004A3231006F70656E206661696C6523
:101D2000642C2046696C653A20004A3230004669CE
:101D30006C652073656C65637465640A0020536983
:101D40007A653A200046696C65206F70656E65643F
:101D50003A20004A3231006F70656E206661696C0E
:101D600065642C2046696C653A20002066696C65C4
:101D70003A20004E6F7720002220706F73002220DF
:101D8000706172656E743A2200535542524F555439
:101D9000494E452043414C4C207461726765743A4A
:101DA00022004B494C4C45442E2000747279696ED8
:101DB0006720746F2063616C6C207375622D67639C
:101DC0006F64652066696C65732077697468207438
:101DD0006F6F206D616E79206C6576656C732E2057
:101DE0004D4158206C6576656C2069733A0003009C
:101DF000C90233002C013C002201450018015100AA
:101E00000E015D0004016F00FA008100F0009900EE
:101E1000E600B700DC00DB00D2000501C8003E018F
:101E2000BE008001B400D101AA003702A000B202B6
:101E3000960042038C00F0038200B60478009405FB
:101E40006E007E06640071075A005B08500030097E
:101E50004600EA093C00830A3200FB0A2800520BC4
:101E60001E008E0B1400B80B0A00D60B00004D327A
:101E700034004D3233202573006175746F25692E4F
:101E80006700473930004731205A2D323000656EE7
:101E90007175657565696E67202200534420636122
:101EA0007264206F6B0A006F70656E526F6F7420E2
:101EB0006661696C65640A00766F6C756D652E6984
:101EC0006E6974206661696C65640A004572726FA0
:101ED000723A00534420696E6974206661696C0A25
:101EE0000000A3B7B9AF11241FBECFEFD1E2DEBF10
:101EF000CDBF00E00CBF14E0A0E0B2E0E8E9FAE8F2
:101F000001E00BBF02C007900D92AA34B107D9F7C8
:101F100025E1AAE4B4E001C01D92A439B207E1F7BB
:101F20001FE0C2E7DFE000E006C021970109802F33
:101F3000FE010E9485C1C137D10780E00807A9F7DB
:101F40000E94DAAF0C943AC50C9400002F923F9295
:101F50004F925F926F927F928F929F92AF92BF92B9
:101F6000CF92DF92EF92FF920F931F93CF93DF9365
:101F7000CDB7DEB7CB55D1090FB6F894DEBF0FBE93
:101F8000CDBF0091DD0820E6029F80011124035A95
:101F9000184F109373040093720480912E0980FFF0
:101FA0001AC0E6E1F5E184917F013FEFE31AF30AFD
:101FB000811102C0780104C00E9400AEF701F3CF86
:101FC000D7018D917D01882319F00E9400AEF8CFD2
:101FD0008AE00E9400AEF80180810F5F1F4F8032BF
:101FE000D1F3F0937304E09372048E34D1F48181C1
:101FF00090ED980F9A3010F08D3299F432969F013F
:102000002F5F3F4F808180538A3010F4F901F7CF62
:10201000DF0131968C918032D9F3B0937304A09391
:102020007204E0907204F09073046AE270E0C701F9
:102030000E94E8C4009749F0FC01319682918032F9
:1020400011F08A3211F41082F9CF97012F5F3F4FC0
:10205000F90180812F5F3F4F8032D1F380538A3066
:1020600010F00C948D2600E010E09AE0909FB001F3
:10207000919F700D11248B01005311098191080F5C
:10208000111D87FD1A95808180538A3078F3CF0126
:102090003196DC012C912032D1F3F701208190930D
:1020A0007104809370042D3411F40C94A519243517
:1020B00011F40C947426273411F00C948D260530FD
:1020C000110509F4BEC650F40430110508F073C6BA
:1020D000809169020230110538F144C10E311105B9
:1020E00011F40C94721868F40C31110509F421C72D
:1020F0000D31110511F00C94A7260E94FD550C948A
:10210000A7260B35110511F40C9441190C35110556
:1021100011F40C9446190A35110511F00C94A726F8
:1021200010926F040C94A726882311F40C94A72610
:102130000E943B5380915B048130B1F48091610433
:10214000882391F020E030E040EA51E46091AC0651
:102150007091AD068091AE069091AF060E94EFBCE3
:1021600087FF02C00C94A72680EA96E00E94343FC5
:102170000E94F5AD80912E0983FD81C0C090AC0610
:10218000D090AD06E090AE06F090AF0620914313DC
:10219000309144134091451350914613C701B60145
:1021A0000E94EFBC882309F46AC00E947D43882303
:1021B00009F1C0924313D0924413E0924513F09278
:1021C0004613E6E1F5E184918F010F5F1F4F811106
:1021D00003C0E4EDF3E004C00E9400AEF801F3CFC9
:1021E00084918F010F5F1F4F882321F00E9400AE62
:1021F000F801F6CFC090AC06D090AD06E090AE06E8
:10220000F090AF0620914313309144134091451351
:1022100050914613C701B6010E9494C10E9401C3A8
:1022200097FF07C090958095709561957F4F8F4F70
:102230009F4F69357240810591050CF1C09243139F
:10224000D0924413E0924513F0924613E6E1F5E193
:1022500084918F010F5F1F4F811103C0E5EBF3E005
:1022600004C00E9400AEF801F3CF84918F010F5F8C
:102270001F4F882321F00E9400AEF801F6CF209175
:10228000A0063091A1064091A2065091A30660914C
:102290003713709138138091391390913A130E943B
:1022A000EFBC81111DC02091A4063091A50640917C
:1022B000A6065091A70660913B1370913C13809144
:1022C0003D1390913E130E94EFBC811109C06091B3
:1022D00000027091010280910202909103023CC0C1
:1022E0008091F30860910602709107028823F1F053
:1022F000072E000C880B990B0E94F6BC209100025F
:102300003091010240910202509103020E9455BD9A
:102310002AE037ED43E25CE30E9455BD2FEF3FEF2B
:102320004FEF5FEF0E94143A0C94A726072E000C83
:10233000880B990B0E94F6BC20910002309101029B
:1023400040910202509103020E9455BD2AE037EDF0
:1023500043E25CE30E9455BD0E949D910E949391CF
:102360000C94A726882311F40C94A7260E943B53B3
:1023700082E50E948492882309F436C10E94579313
:102380004B015C0120E030E0A9010E94EFBC8823F2
:1023900009F456C120913713309138134091391305
:1023A00050913A132CA73DA74EA75FA780913B13EE
:1023B00090913C13A0913D13B0913E1388AB99AB23
:1023C000AAABBBAB2091A0063091A1064091A2061A
:1023D0005091A3062CAB3DAB4EAB5FAB8091A406F6
:1023E0009091A506A091A606B091A70688AF99AFD7
:1023F000AAAFBBAF6CA57DA58EA59FA50E94EFBC23
:1024000081110DC028AD39AD4AAD5BAD68A979A980
:102410008AA99BA90E94EFBC882309F411C1FF245B
:10242000F3940230110509F0F12C20E030E0A9010D
:10243000C501B4010E94EFBC881F8827881FF816C9
:1024400059F020E030E040E85FEB28962CAF3DAF3C
:102450004EAF5FAF28970AC080E090E0A0E8BFE3EE
:1024600028968CAF9DAFAEAFBFAF28972CA53DA5EA
:102470004EA55FA56CA97DA98EA99FA90E9494C1B4
:1024800024966CAF7DAF8EAF9FAF249728A939A952
:102490004AA95BA968AD79AD8AAD9BAD0E9494C194
:1024A0006B017C0124962CAD3DAD4EAD5FAD249704
:1024B000CA01B9010E9455BD2B013C01A70196013B
:1024C000C701B6010E9455BD9B01AC01C301B20119
:1024D0000E9495C10E9443C46CAF7DAF8EAF9FAF89
:1024E00020E030E040E05FE30E9455BD2B013C015D
:1024F000A5019401C501B4010E9455BD4B015C01C9
:10250000A3019201C301B2010E9455BD9B01AC0120
:10251000C501B4010E9494C10E9443C428962CAD09
:102520003DAD4EAD5FAD28970E9455BD4B015C019E
:10253000C701B60190582CAD3DAD4EAD5FAD0E94C8
:102540008FC2A50194010E9455BD6B017C012CA98D
:102550003DA94EA95FA96CA57DA58EA59FA50E944A
:1025600095C120E030E040E05FE30E9455BD9B0153
:10257000AC01C701B6010E9495C12CA53DA54EA591
:102580005FA50E9494C16B017C0128AD39AD4AADB5
:102590005BAD68A979A98AA99BA90E9495C120E091
:1025A00030E040E05FE30E9455BD2B013C012CADC3
:1025B0003DAD4EAD5FAD24966CAD7DAD8EAD9FADA6
:1025C00024970E948FC2A50194010E9455BD9B01D2
:1025D000AC01C301B2010E9495C128A939A94AA939
:1025E0005BA90E9494C114C089E40E94849288234C
:1025F00029F00E9457936B017C0103C0C12CD12CA0
:1026000076018AE40E9484928823E9F00E9457931D
:102610006CA77DA78EA79FA720E030E0A901C70186
:10262000B6010E94EFBC81111BC020E030E0A9017F
:102630006CA57DA58EA59FA50E94EFBC811110C041
:10264000ECECFEE1A4C320E030E0A901C701B60133
:102650000E94EFBC8823A1F31CA61DA61EA61FA6E0
:10266000A7019601C701B6010E9455BD4B015C014F
:102670002CA53DA54EA55FA5CA01B9010E9455BD77
:102680009B01AC01C501B4010E9495C10E9443C4E5
:1026900068966CAF7DAF8EAF9FAF68972091371370
:1026A000309138134091391350913A1328AF39AF14
:1026B0004AAF5BAFC701B6010E9495C128966CAFC7
:1026C0007DAF8EAF9FAF289780913B1390913C13C5
:1026D000A0913D13B0913E138CAF9DAFAEAFBFAF95
:1026E0002CA53DA54EA55FA5BC01CD010E9495C1BD
:1026F0006C966CAF7DAF8EAF9FAF6C9720913F1300
:102700003091401340914113509142132C962CAFBD
:102710003DAF4EAF5FAF2C976091A8067091A906B0
:102720008091AA069091AB060E9494C124966CAF4A
:102730007DAF8EAF9FAF2497D701C601B05888AB4D
:1027400099ABAAABBBAB2CA53DA54EA55FA5505838
:102750002CAB3DAB4EAB5FAB8091A0069091A10638
:10276000A091A206B091A30660968CAF9DAFAEAFCC
:10277000BFAF609728962CAD3DAD4EAD5FAD2897AD
:10278000BC01CD010E9494C16B017C012091A40683
:102790003091A5064091A6065091A70664962CAFED
:1027A0003DAF4EAF5FAF64976C962CAD3DAD4EAD77
:1027B0005FAD6C9764966CAD7DAD8EAD9FAD64974B
:1027C0000E9494C14B015C01A701960168A979A9F7
:1027D0008AA99BA90E9455BD2B013C01A50194012A
:1027E0006CA97DA98EA99FA90E9455BD9B01AC0132
:1027F000C301B2010E9495C12B013C01A5019401C6
:1028000068A979A98AA99BA90E9455BD4B015C01C1
:10281000A70196016CA97DA98EA99FA90E9455BD0B
:102820009B01AC01C501B4010E9494C1A3019201B6
:102830000E9414C26B017C0120E030E0A9010E94DB
:10284000EFBC87FF0AC02BED3FE049EC50E4C70125
:10285000B6010E9495C16B017C010230110551F453
:102860002BED3FE049EC50E4C701B6010E9494C152
:102870006B017C0120E030E0A901C701B6010E9494
:10288000EFBC811126C060962CAD3DAD4EAD5FAD65
:10289000609768AD79AD8AAD9BAD0E94EFBC8111A8
:1028A00018C064962CAD3DAD4EAD5FAD64976CAD78
:1028B0007DAD8EAD9FAD0E94EFBC81110AC02BEDA6
:1028C0003FE049EC50E4C701B6010E9495C16B019D
:1028D0007C01A701960168966CAD7DAD8EAD9FAD74
:1028E00068970E9455BD9B01AC010E9455BD4B01EC
:1028F0005C0124962CAD3DAD4EAD5FAD2497CA0171
:10290000B9010E9455BD9B01AC01C501B4010E94F3
:1029100095C10E9443C44B015C012FE632E143E8BC
:102920005AE30E94EFBC87FD2BC2C501B4010E948F
:1029300037C30E9408C37DAF6CAF672B21F481E0E1
:1029400090E09DAF8CAF4090431350904413609043
:10295000451370904613ACADBDADBD0180E090E075
:102960000E94F4BC4B015C019B01AC01C701B601A4
:102970000E948FC268AF79AF8AAF9BAFA501940167
:1029800024966CAD7DAD8EAD9FAD24970E948FC215
:1029900064966CAF7DAF8EAF9FAF6497A301920139
:1029A0006091AC067091AD068091AE069091AF0635
:1029B0000E9494C1A50194010E948FC268966CAFD9
:1029C0007DAF8EAF9FAF689728AD39AD4AAD5BAD97
:1029D000CA01B9010E9455BD20E030E040E05FE34C
:1029E0000E9455BD9B01AC0160E070E080E89FE370
:1029F0000E9494C124966CAF7DAF8EAF9FAF249799
:102A00002C962CAD3DAD4EAD5FAD2C9729873A8706
:102A10004B875C874D865E866F86788A609106025A
:102A200070910702072E000C880B990B0E94F6BCD0
:102A30002091000230910102409102025091030264
:102A40000E9455BD2AE037ED43E25CE30E9455BD8C
:102A50002C966CAF7DAF8EAF9FAF2C970E94384005
:102A60009B01AC0128533F4F4F4F5F4F60962CAFF7
:102A70003DAF4EAF5FAF609748A859A86AA87BA842
:102A800022242394312CD12C4CAD5DAD421553053D
:102A900009F432C10E94EB9C0E943840DC01CB015A
:102AA00060962CAD3DAD4EAD5FAD6097821B930B34
:102AB000A40BB50BB7FD10C00E9438409B01AC01C0
:102AC00028533F4F4F4F5F4F60962CAF3DAF4EAFF7
:102AD0005FAF60970E94A13681E08D0D893108F0CB
:102AE00042C0D82E2CA93DA94EA95FA924966CAD51
:102AF0007DAD8EAD9FAD24970E9455BD4B015C010D
:102B00009201A30168AD79AD8AAD9BAD0E9455BD20
:102B1000A50194010E9495C17B018C019201A30142
:102B200024966CAD7DAD8EAD9FAD24970E9455BDB2
:102B30004B015C012CA93DA94EA95FA968AD79ADF7
:102B40008AAD9BAD0E9455BD9B01AC01C501B4018E
:102B50000E9494C12B013C01C701D8018CAB9DABF5
:102B6000AEABBFAB4CC0B10180E090E00E94F4BCC2
:102B700028AD39AD4AAD5BAD0E9455BD4B015C013E
:102B80000E948AC26B017C01C501B4010E9435C458
:102B90004B015C01A701960168A979A98AA99BA9A3
:102BA0000E9455BD2B013C012CA53DA54EA55FA55E
:102BB000C501B4010E9455BDA30192010E9495C1B7
:102BC0002B013C01A501940168A979A98AA99BA9B7
:102BD0000E9455BD4B015C012CA53DA54EA55FA5EE
:102BE000C701B6010E9455BD9B01AC01C501B401EE
:102BF0000E9494C16CAB7DAB8EAB9FABD12C92018C
:102C0000A30128966CAD7DAD8EAD9FAD28970E9437
:102C100095C169837A838B839C832CA93DA94EA996
:102C20005FA96C966CAD7DAD8EAD9FAD6C970E942B
:102C300095C16D837E838F83988764962CAD3DAD5F
:102C40004EAD5FAD649769857A858B859C850E94C2
:102C500095C169877A878B879C8768962CAD3DAD37
:102C60004EAD5FAD68976D857E858F8598890E9492
:102C700095C16D877E878F87988BCE0101960E94C4
:102C8000343FC0906A0489819A81AB81BC8188A35A
:102C900099A3AAA3BBA38D819E81AF81B8858CA384
:102CA0009DA3AEA3BFA389859A85AB85BC8588A764
:102CB00099A7AAA7BBA7AE01485D5F4FBE016C5D97
:102CC0007F4FCE0180960E94F1862C96ECACFDAC35
:102CD0000EAD1FAD2C979E01235F3F4FAE01485DA7
:102CE0005F4FBE016C5D7F4FCE0180960E945A45BA
:102CF0003FEF231A330AC8CEC0906A048091A00621
:102D00009091A106A091A206B091A30688A399A3D1
:102D1000AAA3BBA38091A4069091A506A091A606A4
:102D2000B091A7068CA39DA3AEA3BFA38091A806D4
:102D30009091A906A091AA06B091AB0688A799A781
:102D4000AAA7BBA7AE01485D5F4FBE016C5D7F4F78
:102D5000CE0180960E94F1862C96ECACFDAC0EADB7
:102D60001FAD2C972CEA36E0AE01485D5F4FBE01E7
:102D70006C5D7F4FCE0180960E945A450E949391D0
:102D80000E94F5AD0C94A7260E9400AEF801849134
:102D90008F010F5F1F4F8111F7CFEFEEF3E08491AA
:102DA0008F010F5F1F4F882311F40C94A7260E94F8
:102DB00000AEF801F4CF80E50E948492882371F080
:102DC00080916704909168044AE050E060E070E010
:102DD00001960E9469BB6B017C0103C0C12CD12C00
:102DE000760183E50E948492882361F00E945793C4
:102DF00020E030E04AE754E40E9455BD0E9408C339
:102E00006B017C010E9498A00E94F5AD809195060F
:102E100090919606A0919706B0919806C80ED91E7B
:102E2000EA1EFB1E0E943840DC01CB018C199D0973
:102E3000AE09BF09B7FD02C00C94A7260E94A136B7
:102E4000F1CF8C9A809162048823C1F0E5E0F4E030
:102E500084918F01882351F0082E000C990B0E9459
:102E6000B5700F5F1F4FF8018491F4CF8DE090E0B3
:102E70000E94B5708AE090E00E94B5708091610474
:102E8000882309F450C084E190E099A388A344E02A
:102E9000BE016F5F7F4FCE0180960E94567E44E058
:102EA0006DE574E0CE0180960E94567E44E06AE4AF
:102EB00074E0CE0180960E94567E44E06EE474E099
:102EC000CE0180960E94567E44E062E574E0CE0119
:102ED00080960E94567E44E066E574E0CE018096BE
:102EE0000E94567E40915D0450915E0460915F04A3
:102EF0007091600440931C1250931D1260931E1237
:102F000070931F128BE691E10E94C97681E0809355
:102F10005C0480935B04109261048FEF90E09093C7
:102F20002D0980932C09669B02C00C94AA260C9450
:102F3000A7260E9498A080E00E9443540E94DD557D
:102F400081E080933B0288E50E948492082F89E506
:102F50000E948492182F8AE50E948492F82E011113
:102F600005C0111105C081E08F2503C0111101C0FA
:102F700080E08093040290E1E7E3F3E1A0EAB6E0A9
:102F800001900D929A95E1F7811104C0011102C0E0
:102F90001123D9F120E030E040E85FE360915C1359
:102FA00070915D1380915E1390915F130E9495C1A3
:102FB000209150133091511340915213509153135B
:102FC0000E9495C16093A8067093A9068093AA06F3
:102FD0009093AB0620913F133091401340914113E1
:102FE000509142130E94F5C318167CF419821A827C
:102FF0001B821C829E012F5F3F4F48EA56E06BE325
:1030000073E187E393E10E94AE9080910402811105
:1030100002C0002321F080E090E00E9411358091F1
:103020000402811102C0112321F081E090E00E948E
:10303000113580910402811102C0FF2021F082E04D
:1030400090E00E9411350E94C097809148128093B1
:103050003B020E94C35581E00E9443540E94935C4E
:1030600080914B078A3A11F00C94A7268091A00F0B
:1030700081110C94A726F11006C0809104028823C8
:1030800011F40C94A72680E090E0A0E0B0E488A3BF
:1030900099A3AAA3BBA3AFE6CA2EA2E1DA2EA3E8A6
:1030A000EA2EAAE3FA2EC982DA82EB82FC829E0122
:1030B000205E3F4FAE014F5F5F4F6BE373E187E3ED
:1030C00093E10E94AE905F9A8A9AC0923F13D09289
:1030D0004013E0924113F092421381E080939406F2
:1030E0000C94A72688E50E948492882319F00E94F8
:1030F00057930DC020E030E0A90160913713709123
:1031000038138091391390913A130E9495C168A3A6
:1031100079A38AA39BA389E50E948492882319F04E
:103120000E9457930DC020E030E0A90160913B134D
:1031300070913C1380913D1390913E130E9495C174
:103140006B017C0169837A838B839C832091541368
:1031500030915513409156135091571368A179A19E
:103160008AA19BA10E9494C12091481330914913D8
:1031700040914A1350914B130E9494C14B015C0142
:1031800029E630E040E251EC0E94F5C387FF02C01F
:103190000C94A72623E030E04DEC53E4C501B401C4
:1031A0000E94EFBC181614F40C94A7262091581313
:1031B0003091591340915A1350915B13C701B601D6
:1031C0000E9494C120914C1330914D1340914E13A5
:1031D00050914F130E9494C16B017C0127E137EBA2
:1031E00041ED58EB0E94F5C387FF02C00C94A7265F
:1031F00023E030E04DEC53E4C701B6010E94EFBC80
:10320000181614F40C94A72680905C1390905D130C
:10321000A0905E13B0905F13C0905013D0905113E4
:10322000E0905213F090531320E030E0A901C50163
:10323000B4010E9495C1A70196010E9495C1A50104
:1032400094010E9494C1A70196010E9494C16B0150
:103250007C0127E137EB41ED58EB0E94F5C387FF76
:1032600002C00C94A72623E030E843EE53E4C701E4
:10327000B6010E94EFBC181614F40C94A7260C9407
:10328000BB2681E080936F040C94A72685E40E94FE
:103290008492B82E811102C00E9498A075E8872EF2
:1032A00072E0972EE7E3CE2EE3E1DE2EF8E4EF2E78
:1032B000F3E1FF2E00E010E0A12CD4018D914D012F
:1032C0000E948492882339F1F60140805180628007
:1032D00073800E945793D6016D937D938D939C9339
:1032E00013970330C1F0A30192010E9494C19B0186
:1032F000AC01F70160817181828193810E9495C147
:10330000D7016D937D938D939C931397C8010E9471
:10331000F891AA24A3940F5F1F4FB4E0CB0ED11CE9
:10332000E4E0EE0EF11C0430110539F6AA2019F084
:103330000E94C09706C0BB2021F083E493E10E9465
:10334000B0AA0E94935C0C94A7260737110509F4D4
:1033500038C608F0B8C00D34110509F4AAC308F046
:1033600067C00A31110509F418C2C8F50531110505
:1033700009F4FDC1E0F40231110509F44CC5043132
:10338000110509F4B2C10131110511F00C94A72601
:103390005F988A9847989FB7F894809108018E7F2C
:1033A000809308019FBF479812980C94A726073175
:1033B000110509F4E6C108F4DEC10831110509F46C
:1033C000E6C10931110511F00C94A72681E0809324
:1033D000DF08809382131092A00F0C94A7260F3160
:1033E000110509F46FC278F40C31110509F420C2FB
:1033F00008F4E1C10E31110511F00C94A7260E94CA
:10340000395B0C94A7260A32110509F434C330F451
:103410000032110509F412C20C94A7260B341105D1
:1034200009F429C30C34110509F429C30C94A72607
:103430000936110509F474C420F50335110509F4A2
:10344000E6C478F40135110509F4CBC408F0DCC4F6
:103450000035110511F00C94A726259A2D9A0C948D
:10346000A7260535110509F40BC508F4D4C40C359D
:10347000110509F41EC50836110509F41EC30C9484
:10348000A7260D36110509F46CC450F40B3611054E
:1034900009F495C408F46DC4109208020C94A72690
:1034A0000F36110509F44AC308F435C30037110576
:1034B00009F415C40237110511F00C94A7260E94D7
:1034C000935C0C94A7260E32F1E01F0711F40C94C4
:1034D000D32308F060C00D3C110509F479C630F51E
:1034E0000E3B110509F441C460F40937110509F4D4
:1034F00071C508F469C50C38110509F4F8C30C94BA
:10350000A726093C110509F4BCC530F4083C110597
:1035100009F465C50C94A7260B3C110509F4D0C528
:103520000C3C110509F4EAC50C94A7260D3D1105C4
:1035300009F49DC7A0F4033D110509F4D3C00C3D67
:10354000110509F487C70E3C110511F00C94A7264C
:1035500015E8E12E12E0F12E00E010E0ADC60831D2
:1035600031E0130711F40C947C2230F4023E110573
:1035700009F496C70C94A7260C3251E0150711F4F4
:103580000C9427230D32114011F00C94A7260E94B1
:1035900014660C94A726043FA1E01A0711F40C94BA
:1035A000702508F054C00139E1E01E0711F40C94B5
:1035B000472490F4003321E0120711F40C945623B1
:1035C00010F40C9444240039114011F00C94A726F7
:1035D0000E9498A00C94A7260A3951E0150709F417
:1035E00082C350F40239114011F00C94A72680E0F8
:1035F0000E9454540C94A726043AA1E01A0711F42F
:103600000C944B240C3A114011F00C94A726EDE9D0
:10361000F6E0F9AFE8AF24E5C22E23E1D22E38E47C
:10362000232E33E1332E27E333E13DAB2CAB45E1D1
:1036300052E059AB48AB89E092E09DA78CA746E9E0
:10364000E42E48E0F42E00E010E00C9496240335BC
:10365000E3E01E0709F442C0A8F4063F21E0120788
:1036600011F40C94762510F40C947325073F41E077
:10367000140711F40C9479250A39124009F434C660
:103680000C94A726073EA3E01A0711F40C94B82562
:1036900070F4003A134011F00C94A72621E0209317
:1036A0009F0F40E060E00E9450A30C94A726083EC4
:1036B000F3E01F0711F40C94C625093E134011F0E6
:1036C0000C94A7264FED56E025E08DECC82E8CEC2F
:1036D000D82EED2C8DEBF82E0C942526E6E1F5E1A5
:1036E0000C948825E6E1F5E11EC6EAE2F4E0849157
:1036F0008F010F5F1F4F882321F00E9400AEF80159
:10370000F6CF109226121092251281ED9FE00E94B2
:1037100011798BE1E1EDFFE0DE01159601900D924C
:103720008A95E1F78091CF0F9091D00F9C838B8386
:1037300085E393E09A83898340E050E0BE016F5FA8
:103740007F4F83EF93E00E94B274CE0101960E94F6
:103750006436EBE1F4E084918F010F5F1F4F882303
:1037600011F40C94A7260E9400AEF801F4CF0E9439
:1037700072A70C94A7261092A00F1092A10F0C9480
:10378000A72640E061E00E9450A30C94A7260E9467
:1037900092AA0E94F8A00C94A7268091A10F8823DA
:1037A00011F40C94A72683E50E94849281110C9455
:1037B00028270C94A7268091A10F811103C0EDE466
:1037C000F4E02AC0EBE3F4E084918F010F5F1F4F18
:1037D000882321F00E9400AEF801F6CF60911C1200
:1037E00070911D1280911E1290911F124AE00E944A
:1037F00022AE8FE20E9400AE6091181270911912F1
:1038000080911A1290911B124AE00E9422AE8AE027
:103810000E9400AE0C94A72684918F010F5F1F4F6A
:10382000882311F40C94A7260E9400AEF801F4CF6F
:1038300040E060E00E9450A30C94A7268091A00F66
:1038400081110E9498A0009170041091710461E2AE
:1038500070E0C8010E94E8C4009719F08C010F5F66
:103860001F4F80E50E948492882349F0FF24F3943F
:1038700080916704909168048017910708F0F12CFB
:103880008091A10F882311F40C94A7264F2D61E09D
:10389000C8010E9450A383E50E948492882349F0C6
:1038A00080916704909168048017910710F40C943C
:1038B00039270E9492AAF1100C94A7260E94F8A022
:1038C0000C94A7260E94FEAB7B018C0120E831E519
:1038D00041E050E00E94F6C0C9016DE671E00E942F
:1038E0005DC14B015C01C801B70120E13EE040E051
:1038F00050E00E94F6C0CA01B90128E130E040E082
:1039000050E00E94F6C0762E672EC62ED72E6CE3AE
:10391000262E312C412C512CC801B701A201910156
:103920000E94F6C0F62EE72ECA01B901A20191014C
:103930000E94F6C0CB018E010F5F1F4F81149104CE
:10394000D1F0EF92FF927F936F936F927F92BF922D
:10395000AF929F928F9286E894E09F938F931F93EC
:103960000F930E94C0BC0FB6F894DEBF0FBECDBF50
:10397000E6E1F5E145C0A114B10489F0EF92FF92B0
:103980007F936F936F927F92BF92AF9286E794E09E
:103990009F938F931F930F930E94C0BCE4CFCD28B9
:1039A00079F0EF92FF927F936F936F927F928AE606
:1039B00094E09F938F931F930F930E94C0BCD3CF2B
:1039C000892B69F0EF92FF927F936F9382E694E0E8
:1039D0009F938F931F930F930E94C0BCC4CFEF920D
:1039E000FF928EE594E09F938F931F930F930E9415
:1039F000C0BC0F900F900F900F900F900F90B8CF0A
:103A000084917F012FEFE21AF20A882321F00E94AD
:103A100000AEF701F5CFB8018AE994E00E9407AE45
:103A20008AE00E9400AE80914F09882311F40C9423
:103A3000A72610924F0960912C0E70912D0E072E23
:103A4000000C880B990B0E94F6BC20914602309125
:103A5000470240914802509149020E94F5C318164E
:103A600014F00C94A72610922D0E10922C0E0E948A
:103A70004C700C94A7260E94F8A00C94A726809165
:103A8000900F9091910F019711F00C94A72682E06E
:103A900090E09093910F8093900F0E943840609334
:103AA0009A0F70939B0F80939C0F90939D0F0C9493
:103AB000A7260E949C700C94A72688E690E00E949E
:103AC000C69281110C94A72680912E0983FF02C013
:103AD0000C94A72683E50E9484928823C1F00E945B
:103AE00057930E9401C370932D0E60932C0E0E9479
:103AF0004C700E94579320E030E04AEA52E40E9462
:103B0000EFBC181614F00E949C700E9457930E94FC
:103B100099430C94A7268EE40E948492882311F482
:103B20000C94A7260E944C936093630470936404E2
:103B300080936504909366040C94A72683E50E9405
:103B40008492882319F00E94979201C080E08093AC
:103B50002E09E6E1F5E184918F010F5F1F4F81117E
:103B600003C0E5EBF4E004C00E9400AEF801F3CF1F
:103B700084918F010F5F1F4F882321F00E9400AEB8
:103B8000F801F6CF80912E09811103C0E1EBF4E03A
:103B900034C057EAC52E54E0D52EE12CF12C20E09C
:103BA00080912E0990E00E2C02C0959587950A947D
:103BB000E2F780FF17C0BB24B394B20E222319F0A2
:103BC0008CE20E9400AEF60185919491FC018491F3
:103BD0008F010F5F1F4F882321F00E9400AEF80174
:103BE000F6CF2B2D3FEFE31AF30A42E0C40ED11CAF
:103BF00055E0E516F104A1F66DC084918F010F5FC9
:103C00001F4F882309F466C00E9400AEF801F5CF6B
:103C100080E20E9400AE8AE50E948492882309F423
:103C20009AC70E9457936B017C0120E030E040EA84
:103C300051EC0E94F5C387FD7EC720E030E040EAEA
:103C400051E4C701B6010E94EFBC18160CF473C70B
:103C500020914707309148074091490750914A0702
:103C6000C701B6010E9494C12B013C019FEDA92E12
:103C700096E0B92E15E0450100E0A3019201F401A0
:103C800060817181828193810E9495C1D4016D937D
:103C90007D938D939D934D010F5F053071F711500A
:103CA000B4E1AB0EB11C1111E6CFC0924707D09220
:103CB0004807E0924907F0924A070E94808A609183
:103CC0004707709148078091490790914A0742E061
:103CD0000E94E1AE8AE00E9400AE0C94A7268CEB15
:103CE00094E00E947A360E946E5C0C94A726809124
:103CF0002E0983FF02C00C94A72683E50E948492BC
:103D0000882311F40C94A7260E9457930E9401C3A4
:103D10007093D3126093D2120E9475980C94A726C8
:103D200089E690E00E94C69281110C949A278091B6
:103D3000A00F811103C081E080935A07E5ECF4E005
:103D400084918F010F5F1F4F882321F00E9400AEE6
:103D5000F801F6CF0E94525D8AE00E9400AE0C94FA
:103D60009A270E94B75F0C94A7260E94DA5D0C94F4
:103D7000A72683E50E948492882321F00E94329333
:103D80008C0102C003EB10E080E50E94849288233E
:103D900019F00E94329302C080E090E098010F3F3A
:103DA000110519F010F02FEF30E0892B11F00C9471
:103DB000A72630932D0920932C090C94A72680E583
:103DC0000E948492811106C010922D0910922C0934
:103DD0000C94A7260E943293892B11F00C94A726ED
:103DE000F3CF0E94C5980E9498A00E946C36109252
:103DF0002D0910922C0968EE73E080E090E00E949B
:103E000016A3259A2D98A3C710926E04A0C781E02F
:103E100080936E049CC783E50E948492882399F066
:103E20000E94579320E030E04AE754E40E9455BDD9
:103E30000E9408C3609321027093220280932302A0
:103E40009093240284C788E50E94849281110C9487
:103E50004B2789E50E94849281110C944B278AE5B7
:103E60000E94849281110C944B2785E40E948492D5
:103E700081110C944B270E9498A00E946C3667C752
:103E800083E50E948492882309F461C70E945793B6
:103E900020E030E04AE754E40E9455BD0E9408C388
:103EA0006093990670939A0680939B0690939C0664
:103EB0004EC735E8C32E32E0D32E40E7E42E43E16F
:103EC000F42E10E0D6018D916D010E94849288231A
:103ED00009F46DC0133009F063C00E9457934B0181
:103EE0005C0120E030E040EA51E40E94EFBC87FF33
:103EF0004EC0A501940160917C1370917D13809157
:103F00007E1390917F130E948FC22B013C019B0175
:103F1000AC016091000970910109809102099091B2
:103F200003090E9455BD60930009709301098093B5
:103F3000020990930309A301920160911C097091F9
:103F40001D0980911E0990911F090E9455BD609323
:103F50001C0970931D0980931E0990931F0960919D
:103F60003B0970913C0980913D0990913E090E9466
:103F7000F4BCA30192010E9455BD0E9408C3609346
:103F80003B0970933C0980933D0990933E098092D0
:103F90007C1390927D13A0927E13B0927F1307C082
:103FA0000E945793F70160837183828393831F5F1D
:103FB000F4E0EF0EF11C143009F084CF0E94E744C6
:103FC000C6C60E949F89C3C681E080933B0280934E
:103FD0004812BDC610923B0210924812B8C688EC37
:103FE00090E00E94C6928111B2C684E40E9484923D
:103FF000882309F4ACC60E9457936B017C0111E041
:1040000020E030E0A9010E94EFBC811101C010E066
:104010001093491220E030E0A901C701B6010E94C7
:10402000EFBC882359F10091690410E00E94579376
:10403000000F111F000F111FF801E35AFD4F60839D
:1040400071838283938320E030E0A90160915D0257
:1040500070915E0280915F02909160020E94EFBCBD
:1040600081110CC080E090E0A0EEBFE380935D0280
:1040700090935E02A0935F02B09360020E94C939E0
:1040800066C695E8E92E92E0F92E0FE319E0D70114
:104090008D917D010E948492882349F00E9457935C
:1040A0000E9408C3F80160837183828393830C5F4D
:1040B0001F4FF9E00F341F0751F70E94C94347C64D
:1040C00005E8E02E02E0F02E00E119E080E2C82EC3
:1040D00089E0D82ED7018D917D010E94849288239A
:1040E00039F00E945793F801608371838283938330
:1040F0000C5F1F4FC016D10669F729C683E50E94E1
:1041000084928823D9F00E945793AB01BC0140935D
:1041100008095093090960930A0970930B094093A9
:10412000040950930509609306097093070982E218
:1041300095E00E9456AF8AE00E9400AE80E50E94A2
:104140008492882399F00E945793AB01BC0140935D
:1041500008095093090960930A0970930B0985E0D7
:1041600095E00E9456AF8AE00E9400AE82E50E9470
:104170008492882399F00E945793AB01BC0140932D
:104180000C0950930D0960930E0970930F0986EE88
:1041900094E00E9456AF8AE00E9400AE84E50E943F
:1041A0008492882309F4D3C50E945793AB01BC01C4
:1041B0004093040950930509609306097093070919
:1041C00088EC94E00E9456AF8AE00E9400AEBFC522
:1041D00083E50E948492882351F00E945793609354
:1041E00028097093290980932A0990932B0984E563
:1041F0000E948492882351F00E945793609324096F
:1042000070932509809326099093270982E40E94E0
:104210008492882399F080916704909168044AE021
:1042200050E060E070E001960E9469BB6093200955
:1042300070932109809322099093230988E50E94B5
:104240008492882351F00E9457936093F4087093EE
:10425000F5088093F6089093F70889E50E94849208
:10426000882351F00E9457936093F8087093F908DF
:104270008093FA089093FB088AE50E948492882331
:1042800051F00E9457936093FC087093FD0880934F
:10429000FE089093FF0885E40E948492882309F425
:1042A00056C50E945793609300097093010980934B
:1042B0000209909303094BC5D7018D917D010E949E
:1042C0008492882339F00E945793AB01BC01C80146
:1042D0000E9447920F5F1F4F0330110569F70E943C
:1042E000C0970E94935C33C58AE50E94849288231C
:1042F00051F00E94579360934A1270934B1280932F
:104300004C1290934D1240914A1250914B12609171
:104310004C1270914D128AE495E00E9456AF8AE0EB
:104320000E9400AE14C584918F010F5F1F4F882338
:1043300021F00E9400AEF801F6CF83E50E9484923E
:10434000882321F00E94079380930502E4E9F5E0B9
:1043500084918F010F5F1F4F882321F00E9400AED0
:10436000F801F6CF80910502882319F0ECE8F5E01A
:1043700002C0E0E9F5E084918F010F5F1F4F8111CA
:1043800003C0E4E8F5E004C00E9400AEF801F3CFFA
:1043900084918F010F5F1F4F882321F00E9400AE90
:1043A000F801F6CF40911502509116026091170264
:1043B0007091180282E895E00E9456AF4091190270
:1043C00050911A0260911B0270911C028FE795E0D8
:1043D0000E9456AF40911D0250911E0260911F0233
:1043E000709120028CE795E00E9456AFE4E7F5E07B
:1043F00084918F010F5F1F4F882321F00E9400AE30
:10440000F801F6CF4091090250910A0260910B0227
:1044100070910C0282E795E00E9456AF40910D0228
:1044200050910E0260910F02709110028FE695E09C
:104430000E9456AF409111025091120260911302F6
:10444000709114028CE695E00E9456AF8AE00E94BB
:1044500000AE7DC483E50E948492882309F477C46A
:104460000E943F93909307028093060270C48DEDE3
:1044700090E00E94C69281116AC483E50E948492F2
:10448000882309F464C40091690410E00E943F93FA
:10449000000F111FF801E45CFD4F9183808357C426
:1044A00080E50E948492882309F451C40E943F93BE
:1044B0008C0183E50E948492882321F00E943F931F
:1044C0007C0103C0EE24EA94FE2CC70101960397F9
:1044D00008F03DC417FD3BC4E9E8F2E08FED92E03F
:1044E00098013327419151914217530709F42FC482
:1044F0008E179F07B9F7F6C480E50E94849288233F
:1045000009F425C40E943F937C01892B19F0ECEC3F
:10451000FEE181C083E50E948492811103C0E6E13F
:10452000F5E108C00E943F93BC018FE69FE00E9426
:10453000A66E0DC484918F010F5F1F4F882321F059
:104540000E9400AEF801F6CF60E070E08DEB95E0E0
:104550000E94C8AE8091710F28E532E06901C81A47
:10456000D10887FDD394CC0CDD1CCC0CDD1C0D2CAC
:10457000000CEE08FF088091700F28E830E0490138
:10458000881A910887FD9394880C991C880C991CB3
:10459000092C000CAA08BB0880916F0F8F3FC1F057
:1045A00090E0FC01EE0FFF1F8E0F9F1FFC01EE5FDE
:1045B000F04F2181328163E0220F331F6A95E1F7CA
:1045C00074E0369527957A95E1F72E5F3F4F02C04C
:1045D00020E030E02F5F3F4FC901330FAA0BBB0B28
:1045E0009C01AD01281939094A095B09A4EBB0E027
:1045F0000E9437C1A7019601281939094A095B09A8
:104600000E9418C1B9018AEB95E00E94C8AE8AE009
:104610000E9400AE9CC384918F010F5F1F4F8823BF
:1046200021F00E9400AEF801F6CFB70183EB95E0D0
:104630000E94C8AEE4EAF5E084918F010F5F1F4F3E
:10464000882309F484C30E9400AEF801F5CF83E506
:104650000E948492882321F00E943F938C0102C023
:104660000EE610E080E50E948492882319F00E94F3
:104670003F9302C088EE93E06C01990FEE08FF08AB
:104680001016110674F440E050E0BA01C8010E940F
:10469000BA70C701B6010E9416A38FE10E9431983B
:1046A00056C3C701B6010E9416A351C380E50E94FC
:1046B0008492882351F00E94579360937202709302
:1046C0007302809374029093750289E40E9484922D
:1046D000882381F00E94579325EB3EEF46E15DE38E
:1046E0000E9455BD60936E0270936F0280937002BA
:1046F0009093710284E40E948492882381F00E9446
:10470000579325EB3EEF46E15DE30E948FC2609335
:104710006A0270936B0280936C0290936D02E6E1E3
:10472000F5E184918F010F5F1F4F882321F00E94D4
:1047300000AEF801F6CF4091720250917302609181
:104740007402709175028DEC95E00E9456AF25EBD6
:104750003EEF46E15DE360916E0270916F028091E1
:104760007002909171020E948FC2AB01BC0189EC72
:1047700095E00E9456AF25EB3EEF46E15DE3609188
:104780006A0270916B0280916C0290916D020E949E
:1047900055BDAB01BC0185EC95E00E9456AF8AE0A7
:1047A0000E9400AED4C283E50E948492082F882321
:1047B000A1F00E94579360934E0270934F02809332
:1047C00050029093510211E020E030E0A9010E94D4
:1047D000EFBC811110E01093500980E50E94849293
:1047E000182F8823A9F020E030E0A90160914E0243
:1047F00070914F0280915002909151020E94EFBC43
:10480000882319F00E940793182F109350099FC214
:1048100001119DC2E6E1F5E184918F010F5F1F4F09
:10482000882321F00E9400AEF801F6CF8091500954
:10483000882319F066E174E002C067E873E086EE51
:1048400095E00E9407AE20E030E040E05FE3609139
:104850004E0270914F0280915002909151020E943D
:1048600095C10E9401C385ED95E00E94C8AEE1EDBF
:10487000F5E084918F010F5F1F4F882309F467C211
:104880000E9400AEF801F5CF0E94D36160C281E0C2
:104890000E9454545CC283E50E948492882321F0D4
:1048A0000E9407930E9443548AE50E9484928823C1
:1048B00009F44DC20E9457936B017C016093EF088D
:1048C0007093F0088093F1089093F2082DEB37E392
:1048D00046E855EB0E94F5C3181654F42DEB37E368
:1048E00046E855E3C701B6010E94EFBC87FD09C049
:1048F000A701960160E070E080E89FE30E948FC20C
:1049000003C060E070E0CB0160934E1270934F12D1
:1049100080935012909351128091F308882309F4E8
:1049200016C282E090E00E94173D11C2A8ADB9AD59
:104930008D91B9AFA8AF882309F492C0ECA9FDA965
:1049400080809180A280B380ACA5BDA52D913D91C2
:104950004D915C91E8A9F9A960817181828193816F
:104960000E9495C120E030E040E05FE30E9455BD29
:104970009B01AC01C501B4010E94F5C3181654F4A3
:10498000F70185919591A591B491E82F792F6A2F20
:104990008B2F04C0E0E070E060E080E0D6014D9035
:1049A0005D906D907C902E2F372F462F582FC3018E
:1049B000B2010E9495C1F101208131814281538170
:1049C0000E9495C19B01AC01C501B4010E9494C134
:1049D0004B015C0120E030E040EA51EC0E94F5C35D
:1049E000181654F420E030E040EA51E4C501B40167
:1049F0000E94EFBC87FD03C0ECECFEE10FC0A501F7
:104A00009401C301B2010E9494C1AB01BC01C80171
:104A10000E94479225C00E9400AEF80184918F0148
:104A20000F5F1F4F8111F7CFE9EFF5E084918F0100
:104A30000F5F1F4F882321F00E9400AEF801F6CFD0
:104A400088E290E09A83898388EC90E099A388A318
:104A5000BE016F5F7F4FCE0180960E9485A177C116
:104A60000F5F1F4FF4E0CF0ED11C24E0220E311C4B
:104A70004CA95DA94C5F5F4F5DAB4CAB88A999A970
:104A8000049699AB88ABACA5BDA51496BDA7ACA701
:104A9000B4E0EB0EF11C0330110509F047CF0E9482
:104AA000C0970E94935C83E992E099A388A308ECE5
:104AB00010E01A830983BE01605E7F4FCE0101962C
:104AC0000E9485A18AEB92E099A388A31A830983A7
:104AD000BE01605E7F4FCE0101960E9485A137C165
:104AE0000E94C68034C10E947F7E31C10E94F18A3B
:104AF0002EC183E50E948492882321F00E940793AF
:104B000091E089270E946F8C22C10E9400AEF801BB
:104B100084918F010F5F1F4F8111F7CFEAE2F6E01A
:104B200084918F010F5F1F4F882309F471C80E9481
:104B300000AEF801F5CF6CEE7FEF82E296E00E94C6
:104B4000C8AE80E20E9400AE64E170E08AE196E0C7
:104B50000E94C8AEBFC84091470750914807609176
:104B6000490770914A0787E196E00E9456AFB2C8A4
:104B700081E08093690283E50E948492882309F48E
:104B8000AEC10E9407938111E2C0A9C183E50E94D2
:104B90008492882319F00E94579304C060E070E06B
:104BA00080E690EC4FED56E025E0A0E0B0E0FA01A1
:104BB000EA0FFB1F60837183828393831496A43171
:104BC000B105A9F721504C5E5F4F2111EECF8EE564
:104BD00090E09093DC068093DB069093DE06809352
:104BE000DD0688E090E09093D8068093D70681E1B7
:104BF00090E09093DA068093D90680E090E0A0E6FA
:104C0000B1EC8093470790934807A0934907B0936E
:104C10004A078093430790934407A0934507B093B6
:104C200046078AEA80934B070E94C38A0E94808AC3
:104C3000E9E7F6E084918F010F5F1F4F882309F4A5
:104C400086C00E9400AEF801F5CF80E090E0FA0146
:104C5000E80FF91FC082D182E282F3820496843188
:104C60009105A9F721504C5E5F4F2111EECF8EE5E3
:104C700090E09093DC068093DB069093DE068093B1
:104C8000DD0688E090E09093D8068093D70681E116
:104C900090E09093DA068093D90680E090E0A0E659
:104CA000B1EC8093470790934807A0934907B093CE
:104CB0004A078093430790934407A0934507B09316
:104CC000460785E580934B070E94C38A0E94808A2D
:104CD000E8E5F6E084918F010F5F1F4F8823B9F15B
:104CE0000E9400AEF801F6CF00936A04E6E1F5E118
:104CF00084917F012FEFE21AF20A882321F00E94AB
:104D000000AEF701F5CFB801772783E396E00E9464
:104D1000C8AE8AE00E9400AE1AC0E6E1F5E18491D7
:104D20008F010F5F1F4F882321F00E9400AEF80112
:104D3000F6CF609172047091730485E496E00E944E
:104D400007AE82E20E9400AE8AE00E9400AE0E949E
:104D5000C63FF0C081E080935A0482EC9CEA9093B5
:104D600032028093310280916A008F7C806180934F
:104D70006A00EE9AECCF83E50E948492882309F4BE
:104D800065C00E940793182F80E00E9443540E9440
:104D9000DD5521E030E0412FBE016F5F7F4FCE0136
:104DA00080960E94AC546B017C01E3E1F4E08491B5
:104DB0008F010F5F1F4F882321F00E9400AEF80182
:104DC000F6CF27E137EB41ED58E368A179A18AA13D
:104DD0009BA10E9495C142E00E94E1AEEEE0F4E0AA
:104DE00084918F010F5F1F4F882321F00E9400AE36
:104DF000F801F6CF27E137EB41ED58E369817A817D
:104E00008B819C810E9495C142E00E94E1AEE9E065
:104E1000F4E084918F010F5F1F4F882321F00E94DF
:104E200000AEF801F6CF27E137EB41ED58E3C701BB
:104E3000B6010E9495C142E00E94E1AE8AE00E9464
:104E400000AE0E94C3550E94935C81CF11E09CCFBD
:104E50000E944C93AB01BC0140931C1250931D1255
:104E600060931E1270931F128BE691E10E94C97627
:104E70006ECF0E944C93AB01BC0140931C12509327
:104E80001D1260931E1270931F128BE691E10E9417
:104E9000C9760C94591C0E9498A088E50E948492BF
:104EA00081115F9A89E50E948492882311F08A9A81
:104EB000479A8AE50E948492882349F09FB7F89424
:104EC000809108018160809308019FBF479A85E423
:104ED0000E948492882309F43ACF129A38CF0E9414
:104EE000E53F35CF0E9498A0D02E60E0802F0E9431
:104EF00011A23FEFE316F30659F4802F0E94B9A1E7
:104F000031E020E0892B09F030E0032F122F05C09B
:104F1000EA94EF2861F401E010E08D2D0E94B9A120
:104F20008017910709F413CF0E94A136F6CF00E055
:104F300010E0F3CFC55ADF4F0FB6F894DEBF0FBEB7
:104F4000CDBFDF91CF911F910F91FF90EF90DF9038
:104F5000CF90BF90AF909F908F907F906F905F9019
:104F60004F903F902F9008952F923F924F925F92D3
:104F70006F927F928F929F92AF92BF92CF92DF9269
:104F8000EF92FF920F931F93CF93DF93CDB7DEB7CE
:104F9000A0970FB6F894DEBF0FBECDBF80910C0670
:104FA00090910D06039764F554E0252E312C8E0167
:104FB0000F5F1F4F60E6462E6AEE562E612C712C55
:104FC00080EE9EE00E94793418161906CCF4809188
:104FD0000C0690910D0604979CF480EE9EE00E94D2
:104FE0003D3420910706309108068A3019F08D3043
:104FF00009F065C02115310509F06EC0109209064F
:1050000080910C0690910D06009791F00197909376
:105010000D0680930C068091FF0590910006019685
:1050200064E070E00E9471C1909300068093FF05D8
:10503000C0902E0ED0902F0EE090300EF090310EDA
:1050400020E030E040EA50E4C701B6010E94EFBC26
:1050500087FF02C00C94CC3320E030E04CE853E4EE
:10506000C701B6010E94F5C3181614F40C94CC3392
:1050700080910A0690910B0689349E4E10F40C9490
:10508000D73310920B0610920A06EDE4F8E08491F3
:105090008F01882351F0082E000C990B0E94B570E7
:1050A0000F5F1F4FF8018491F4CF8DE090E00E94D4
:1050B000B5708AE090E00E94B5700C94D7338A33C3
:1050C00029F490910906992309F494CF2F353105DD
:1050D00014F40C94C0308ECF809105069091060692
:1050E00040E6942E989E5001999EB00C1124C50163
:1050F00081589B4F7C01FC01E20FF31F10828091CD
:10510000090681110C94BA30109209066EE470E021
:10511000C7010E94E8C4009709F452C090937E042E
:1051200080937D048E199F098A0D9B1D4AE050E0F3
:1051300060E070E080589B4F0E943BBA609363042C
:10514000709364048093650490936604C090900605
:10515000D0909106E0909206F0909306EFEFCE1A71
:10516000DE0AEE0AFE0AA0900506B09006066C154F
:105170007D058E059F0511F40C94E3309A9CC001C7
:105180009B9C900D112468E478E081589B4F0E940D
:10519000A6BC892B11F00C94E330E3E4F8E0849191
:1051A0008F01882351F0082E000C990B0E94B570D6
:1051B0000F5F1F4FF8018491F4CF0E949EAD17C07E
:1051C0006AE270E0C7010E94E8C4892B29F1E3E498
:1051D000F8E084918F01882351F0082E000C990B80
:1051E0000E94B5700F5F1F4FF8018491F4CF1092A9
:1051F00008061092070604CF80916304909164041E
:10520000A0916504B09166048093900690939106F6
:10521000A0939206B093930680910506909106069E
:1052200020E6289F7001299FF00C1124C7018158A6
:105230009B4F5C0161E470E00E94E8C4009711F4A8
:105240000C94A53090937E0480937D048A199B0969
:105250008E0D9F1D60E070E080589B4F0E94DFB86C
:105260000E9401C3CB01770FAA0BBB0B83329105C0
:1052700010F00C94A530FC018827EE58FF4F8F4F9B
:105280000C9485C1EEE3F8E084917F01882359F006
:10529000082E000C990B0E94B5709FEFE91AF90ACD
:1052A000F7018491F3CF20E030E040E05FE36091CC
:1052B0002E0E70912F0E8091300E9091310E1FC0E6
:1052C000E9E3F8E084917F01882359F0082E000C6F
:1052D000990B0E94B570FFEFEF1AFF0AF701849156
:1052E000F3CF60912C0E70912D0E072E000C880BC1
:1052F000990B0E94F6BC20E030E040E05FE30E94A2
:1053000095C10E9401C37A836983C8010E94ADAD33
:10531000BC0180EE9EE00E941E748DE090E00E9431
:10532000B5708AE090E00E94B5700C94A530E4E37B
:10533000F8E084917F01882359F0082E000C990B26
:105340000E94B570FFEFEF1AFF0AF7018491F3CFC7
:1053500020E030E040E05FE36091CE127091CF1228
:105360008091D0129091D112CACFEFE2F8E08491EF
:105370007F01882359F0082E000C990B0E94B5700C
:10538000FFEFEF1AFF0AF7018491F3CF6091D21279
:105390007091D312AACF20912C0930912D0944E6A7
:1053A000429FC001439F900D11246FEF70E00E9457
:1053B0005DC17B01FFEFEF1AFF0A25E6E216F1045B
:1053C00018F0B4E6EB2EF12CEAE2F8E084915F01EC
:1053D000882359F0082E000C990B0E94B5708FEFAE
:1053E000A81AB80AF5018491F3CFB70180E090E0E4
:1053F00059C3E6E2F8E084917F01882359F0082E32
:10540000000C990B0E94B570FFEFEF1AFF0AF7012D
:105410008491F3CF80E290E00E94B570E2E2F8E080
:1054200084917F01882359F0082E000C990B0E946B
:10543000B570FFEFEF1AFF0AF7018491F3CF609187
:105440003713709138138091391390913A130E9459
:1054500098A980E290E00E94B570EEE1F8E08491B6
:105460007F01882359F0082E000C990B0E94B5701B
:10547000FFEFEF1AFF0AF7018491F3CF60913B131E
:1054800070913C1380913D1390913E130E9498A916
:1054900080E290E00E94B570EAE1F8E084917F013B
:1054A000882359F0082E000C990B0E94B570FFEF6D
:1054B000EF1AFF0AF7018491F3CF60913F137091C7
:1054C000401380914113909142130E9498A980E269
:1054D00090E00E94B57021CF8091A00F882309F43D
:1054E00053C0E5E1F8E084917F01882359F0082E4C
:1054F000000C990B0E94B570FFEFEF1AFF0AF7013D
:105500008491F3CF8091A10F882361F120916E11D6
:10551000222321F18091181290911912A0911A1250
:10552000B0911B120097A105B105B9F0BC01CD01E6
:105530006D597F4F8F4F9F4F24E630E040E050E0A1
:105540000E94F6C060911C1270911D1280911E1273
:1055500090911F120E94F6C001C020E030E03A8313
:105560002983D3CEECE9F6E084917F01882309F406
:10557000D4CE082E000C990B0E94B570FFEFEF1AE5
:10558000FF0AF7018491F2CFEDE0F8E084917F010A
:10559000882309F4C2CE082E000C990B0E94B57026
:1055A000FFEFEF1AFF0AF7018491F2CFE8E0F8E08D
:1055B00084917F01882359F0082E000C990B0E94DA
:1055C000B570FFEFEF1AFF0AF7018491F3CF8090D7
:1055D000010690900206A0900306B0900406811484
:1055E0009104A104B10409F476C00E943840A301DB
:1055F00092010E94F6C069017A01C501B401A301BC
:1056000092010E94F6C07601E21AF30AC7016CE328
:1056100070E00E945DC1CB019927EAE0F0E0BF0194
:105620000E9471C1282FCB01BF010E9471C1805D12
:1056300080937404205D209375041092760464E7CF
:1056400074E080EE9EE00E941E7480E290E00E9472
:10565000B570E6E0F8E084915F01882359F0082EE8
:10566000000C990B0E94B570FFEFAF1ABF0AF5014D
:105670008491F3CF80E290E00E94B570C7016CE3A3
:1056800070E00E945DC16AE070E00E9471C1605DDF
:1056900060937404805D809375041092760464E7CF
:1056A00074E080EE9EE00E941E7480E290E00E9412
:1056B000B570E4E0F8E084917F01882309F42DCEF1
:1056C000082E000C990B0E94B570FFEFEF1AFF0A2D
:1056D000F7018491F2CF80E290E00E94B570ECEF88
:1056E000F7E084917F01882309F417CE082E000C7F
:1056F000990B0E94B570FFEFEF1AFF0AF701849132
:10570000F2CF10921E0E10921D0E8091090180FFA3
:1057100012C0E8EFF7E084917F01882309F4FDCD02
:10572000082E000C990B0E94B570FFEFEF1AFF0ACC
:10573000F7018491F2CF0E9462AD10925B0283E583
:105740000E947AAD882341F00E9495AD0E9408C363
:1057500070931C0E60931B0EE4EFF7E084917F01C1
:10576000882359F0082E000C990B0E94B570FFEFAA
:10577000EF1AFF0AF7018491F3CF8DE090E00E94C9
:10578000B5708AE090E00E94B5700E9434ACE0EF02
:10579000F7E084917F01882309F4BFCD082E000C27
:1057A000990B0E94B570FFEFEF1AFF0AF701849181
:1057B000F2CF8091A00F8823D9F081E080935C071D
:1057C0008093DF08809382131092A00FECEEF7E035
:1057D00084917F01882309F4A0CD082E000C990B39
:1057E0000E94B570FFEFEF1AFF0AF7018491F2CF24
:1057F000E8EEF7E084917F01882309F48ECD082E2E
:10580000000C990B0E94B570FFEFEF1AFF0AF70129
:105810008491F2CF80918213882309F496C40E9468
:1058200092AAE4EEF7E084917F01882309F475CD14
:10583000082E000C990B0E94B570FFEFEF1AFF0ABB
:10584000F7018491F2CF8091A00F811105C0809162
:105850008213882309F479C4109261041092A00F76
:1058600010928213109262048BE691E10E942A85C5
:105870008BE691E10E94B37710929F0F10929E0FDA
:105880000E946E5CE0EAF6E084917F01882359F083
:10589000082E000C990B0E94B570FFEFEF1AFF0A5B
:1058A000F7018491F3CF8DE090E00E94B5708AE01B
:1058B00090E00E94B5705F9A8A9A479A9FB7F894D1
:1058C000809108018160809308019FBF479A129AD6
:1058D00080EE97E0D3C10E94EEAD811136C4809175
:1058E0008213882309F4DAC430C40E94EEAD81111A
:1058F0002CC480918213882309F4EBC426C40E942F
:10590000EEAD81110ACD80918213882309F404C57C
:1059100004CD83E50E947AAD811127C583E40E94FE
:105920007AAD882309F411C40E94EEAD882309F4EE
:105930001CC50BC483E50E947AAD882309F405C415
:105940000E9495AD20E030E0A9010E94EFBC87FDE8
:105950000FC00E9495AD20E030E046E153E40E9484
:10596000F5C3181644F00E9495AD0E9408C305C007
:1059700060E070E002C066E970E07093D31260935B
:10598000D2120E947598E1C383E50E947AAD882304
:10599000D9F00E9495AD20E030E04FE753E40E943B
:1059A00055BD20E030E048EC52E40E948FC20E94D6
:1059B00008C36F3F710519F010F06FEF70E070933E
:1059C0002D0960932C09A9CC8FEF90E090932D09BD
:1059D00080932C09A2CC80915B0781119ECC809191
:1059E000A00F81119ACC0E946E5C5F9A8A9A479AA6
:1059F0009FB7F894809108018160809308019FBF50
:105A0000479A129A8ACC83E50E947AAD882319F1CD
:105A10000E9495AD20E030E040E252E40E94EFBCED
:105A200087FD0FC00E9495AD20E030EC49E754E4BB
:105A30000E94F5C3181644F00E9495AD0E9401C360
:105A400005C068E270E002C067EE73E07093070281
:105A5000609306027AC3E3EDF7E084917F01882327
:105A600059F0082E000C990B0E94B570FFEFEF1A49
:105A7000FF0AF7018491F3CFC0900602D09007028D
:105A80000D2C000CEE08FF08F7FE0EC06DE280EE54
:105A90009EE00E94F03366277727CB016C197D09C1
:105AA0008E099F094AE003C04AE0C701B6010E947F
:105AB00055A933CC0E94EEAD811147C3809182136A
:105AC000882309F4AEC041C30E94EEAD811125CCFC
:105AD00080918213882309F47AC41FCC0E94EEAD12
